:020000040800F2
:1000000060080020490200080F2A00082328000881
:100010000D2A0008750B000871310008000000006F
:10002000000000000000000000000000132A00088B
:10003000770B000800000000112A0008152A0008AC
:1000400063020008630200086302000863020008FC
:1000500063020008630200086302000863020008EC
:1000600063020008630200086302000863020008DC
:1000700063020008630200086302000863020008CC
:1000800063020008630200086302000863020008BC
:1000900063020008630200086302000863020008AC
:1000A000630200086302000863020008630200089C
:1000B000812A0008630200080000000063020008B3
:1000C0006302000800000000000000006302000856
:1000D00000000000630200086531000863020008A8
:1000E0006302000863020008000000000000000036
:1000F0000000000000000000000000000000000000
:1001000000000000000000000000000000000000EF
:100110000000000000000000630200086302000805
:1001200000000000000000000000000000000000CF
:1001300000000000000000000000000000000000BF
:1001400063020008630200080000000000000000D5
:10015000000000000000000000000000000000009F
:10016000000000000000000000000000000000008F
:10017000000000000000000000000000000000007F
:10018000000000006302000800F002F800F04DF8E3
:100190000AA090E8000C82448344AAF10107DA45E2
:1001A00001D100F042F8AFF2090EBAE80F0013F0E7
:1001B000010F18BFFB1A43F001031847B8380000BD
:1001C000D8380000103A24BF78C878C1FAD852074E
:1001D00024BF30C830C144BF04680C6070470000C1
:1001E0000023002400250026103A28BF78C1FBD840
:1001F000520728BF30C148BF0B607047752900F017
:100200002781732900F02983002070471FB503F070
:1002100065FB00F0DFFB04000020002103F048FB39
:10022000401C60601FBD10B510BD00F0AEFB114654
:10023000FFF7ECFF03F01EF900F0DEFB03B4FFF75D
:10024000F2FF03BC00F022FC094880470948004740
:10025000FEE7FEE7FEE7FEE7FEE7FEE7FEE7FEE776
:10026000FEE7FEE704480549054A064B70470000D3
:10027000712A00088901000860020020600800203F
:10028000600400206004002053EA020C00F0698042
:100290002DE9F04B4FF00006002B1FBFB3FA83F59A
:1002A00003FA05F424FA05F65E4012BF1643B2FACB
:1002B00082F502FA05F4C5F120051EBF22FA05FCFD
:1002C00044EA0C04203556EA044C4FEA144418BFA3
:1002D000641C4FF000084FF00009904271EB030CD2
:1002E00039D3002919BFB1FA81F701FA07F6B0FA3C
:1002F00080F700FA07F6C7F120071EBF20FA07FCB7
:1003000046EA0C062037B6FBF4FCA7EB0507103FC6
:1003100007F01F0BCBF120060CFA0BFB2CFA06F6AC
:1003200044BFB3460026202FA4BF5E464FF0000B0B
:100330005BEA060C08BF4FF0010B19EB0B09ABFB96
:10034000027C48EB0608C01B06FB02CC0BFB03CC6F
:1003500071EB0C01C1E70B46024641464846BDE839
:10036000F08B13B54FF000004FF00001AFF30080A9
:10037000BDE81C40704700000FB47CB50C0009AA12
:10038000009001D02044401E084B7B4469460190F8
:10039000089800F030FA05461CB10020694600F0CC
:1003A0003DFA28467CBC5DF814FB0000990400006F
:1003B00070B5044685690068C10601D5302600E0A5
:1003C0002026C00707D070BDD4E9012130469047F0
:1003D000206A401C20626D1EF6D570BD70B50446C3
:1003E00085690078C00707D170BDD4E901212020BC
:1003F0009047206A401C20626D1EF6D570BD70B516
:100400000C460546012A05D02878800600D5EA6901
:10041000002302E0012305E05B1C934202D2E05C72
:100420000028F9D1A869E618C01AA861286A1844FA
:1004300028622846FFF7BCFF04E0D5E9012114F843
:10044000010B9047B442F8D32846FFF7C7FF70BDB1
:100450002DE9F0410646002410687529314616A59D
:1004600010D0AFF30080002802DA404213A507E065
:1004700031688A0701D512A502E0490704D511A504
:10048000012401E0AFF3008000210A2206F12407D5
:1004900009E0B0FBF2FCB0FBF2F302FB1C003030D1
:1004A00078541846491C0028F3D123462A46304682
:1004B000BDE8F04100F040B9000000002D00000050
:1004C0002B000000200000002DE9F0474FF0000A4B
:1004D00089460446C0F820A02046E16888470028E5
:1004E00076D0252806D0D4E901219047206A401C07
:1004F0002062F1E7E168204600258847C4F81CA087
:1005000006460027C4F818A02A2E09D0304602F06B
:1005100040FE38B304EB8708303EC8F8186019E095
:1005200059F8041B204604EB87029161E168884773
:10053000012F064618D1E069002820DA25F02005B1
:100540001DE0D8F8180000EB800006EB40003038C2
:10055000C8F818002046E1688847064602F019FEF0
:100560000028EED1012F0AD02E2E08D12046E168B6
:1005700088477F1C0646022F45F02005C4DBA06992
:10058000002803DA404245F00105A061E80701D0E8
:1005900025F01005B6B1A6F14100192802D8203681
:1005A00045F400654A463146204625604D46FFF732
:1005B00025FE58B1012806D0ED1D25F0070000F1F9
:1005C000080989E704E005F1040985E730468AE770
:1005D000206ABDE8F08770B5064600F0A9F8046807
:1005E000054630460A22002100F03BF92C6070BD20
:1005F00040EA010370B59B072ED14FF00136042A63
:100600002AD308C810C99D1B9D43121F15EAC615A1
:1006100017D0D8B2E1B2401A50EA056110D198B2B1
:10062000A1B2401A50EA05410AD123F07F4024F0DC
:100630007F41401A50EA052102D1180EA0EB146048
:1006400070BDA342DBD018BA21BA884201D901207B
:1006500070BD4FF0FF3070BD0AB9002070BD10F8BA
:10066000013B11F8014B63B1A3420AD1521E08D0DD
:1006700010F8013B11F8014B1BB1A34201D1521EEE
:10068000EDD1181B70BD02F0FF0343EA032242EADA
:10069000024200F002B84FF000020429C0F01280BC
:1006A00010F0030C00F01B80CCF1040CBCF1020F25
:1006B00018BF00F8012BA8BF20F8022BA1EB0C01FA
:1006C00000F00DB85FEAC17C24BF00F8012B00F8F0
:1006D000012B48BF00F8012B70474FF0000200B516
:1006E000134694469646203922BFA0E80C50A0E855
:1006F0000C50B1F12001BFF4F7AF090728BFA0E803
:100700000C5048BF0CC05DF804EB890028BF40F8CE
:10071000042B08BF704748BF20F8022B11F0804F10
:1007200018BF00F8012B70477047704770470000F2
:1007300000487047000200202DE9F0470D46994619
:100740009246044600F124080168880604D5E06951
:1007500021F01001216000E00120A84201DD471BCB
:1007600000E00027A1697A1902EB0900081AA061CC
:100770002078C00602D42046FFF71AFE002608E0C3
:10078000D4E901211AF806009047206A401C761C23
:1007900020624E45F4DB2078C0060AD52046FFF7DC
:1007A00007FE06E0D4E9012130209047206A401C72
:1007B0002062381EA7F10107F4DC07E0D4E901212B
:1007C00018F805009047206A401C2062281EA5F1F9
:1007D0000105F3DC2046FFF701FE2078000602D574
:1007E0000220BDE8F0870120FBE7000001694A1CF8
:1007F00002610878704700B58FB0CDE90131002162
:10080000059105497944CDE9031011466846FFF783
:100810005BFE0FB000BD0000E5FFFFFF0A6802F8B5
:10082000010B0A607047D1E900239A4202D2531C9F
:100830000B601070704710B5436913B1AFF30080BF
:1008400001E0FFF7DCFD012010BD127800F124016A
:100850000A7000224A700122EDE711684FF0FF3262
:10086000E9E72DE9F04791460F4680460446002609
:1008700014F8015B2DB100F031F80068405DC0074D
:10088000F6D12B2D02D02D2D18D0641E4A463946A4
:10089000204600F02BF827B13968A14201D1C7F8F2
:1008A00000804FF0020471050BD54042002803DDA3
:1008B000FFF73EFF0460A007BDE8F08746F48066BE
:1008C000E4E70028F8DAFFF733FF04606FF0004038
:1008D000F2E70000004870470002002010B500F069
:1008E00079F8001D10BD00BFC92F00002DE9F05F91
:1008F000824615468B4600270AF10104B946007866
:10090000302801D09DB113E014F8010B012778289D
:1009100003D0582801D045B10AE00DB1102D07D100
:10092000002714F8010B102502E0082500E00A2535
:100930000026B0460EE005FB080005FB06F1012786
:100940001FFA80F801EB1046B6F5803F00D3B94698
:1009500014F8010B294600F041F80028EBDABBF14E
:10096000000F05D00FB1641E00E05446CBF80040E4
:10097000B9F1000F06D0FFF7DBFE02210160C81EAF
:10098000BDE8F09F48EA0640FAE77546FFF7A2FF88
:10099000AE4605006946534620F00700854618B06C
:1009A00020B5FFF75FFCBDE820404FF000064FF098
:1009B00000074FF000084FF0000B21F00701AC4694
:1009C000ACE8C009ACE8C009ACE8C009ACE8C009B3
:1009D0008D46704700487047200200203A2800D218
:1009E000303820F02002412A01D3A2F1370088429A
:1009F00001D34FF0FF30704710B50446AFF30080CD
:100A00002046BDE81040FFF719BC00004FF0013C44
:100A100050F8042B51F8043B9A4221D1A2EB0C036D
:100A2000934313EACC1317D150F8042B51F8043B2D
:100A30009A4215D1A2EB0C03934313EACC130BD1CA
:100A400050F8042B51F8043B9A4209D1A2EB0C0355
:100A5000934313EACC13DBD04FF00000704700BF84
:100A6000D01A01BAB1FA81F101F0180122FA01F0AD
:100A7000CB40C1F12001DBB2C0B2C01A2CFA01F3A5
:100A8000D11A914311EAC311E6D1704701491820E8
:100A9000ABBEFEE7260002007047000070B50446BA
:100AA0000068816801F0030101292AD10168C907A2
:100AB00027D0816801F00D01012914D1816841F02E
:100AC0000201816021680320086000F0E1FD054615
:100AD00013E000BF00F0DCFD401B02280DD92068A8
:100AE0008068C00709D0206C40F010002064606C62
:100AF00040F001006064012070BD20688068C0077C
:100B0000E8D1002070BD000070B50446006881681F
:100B100001F00301012902D10168C90725D18168CB
:100B2000134A114212D1816841F00101816000F045
:100B3000AFFD054614E000BF00F0AAFD401B0228EF
:100B40000ED920680068C043C00709D0206C40F06F
:100B500010002064606C40F001006064012070BDF2
:100B600020680068C043C007E6D1002070BD0000C7
:100B70003F000080FEE7704708B572B6064D074C8F
:100B80000821284600F077FD009400E000BF00999E
:100B9000481E0090F4D3F9E700040048400D03001C
:100BA0002DE9F041044690F83C00884601280AD01F
:100BB000012584F83C502046FFF770FF06004FF0F7
:100BC000000703D037E00220BDE8F08125642068EB
:100BD000816821F080418160B8F1010F04D1206863
:100BE000816841F0804181602068816841F0004166
:100BF000816000F04DFD054613E000BF00F048FDA8
:100C0000401B0A280DD920688068002809DA206C6A
:100C100020F0020040F01000206484F83C700120B5
:100C2000D2E7206880680028E8DB206C20F0020012
:100C300040F00100206484F83C703046C4E70000B6
:100C4000F0B594B00025009590F83C202E46012A7E
:100C500019D0012780F83C7003689A6852077CD449
:100C60004A681F24052A11D2D3F830C002EB420291
:100C7000520094402CEA040C0C6894404CEA040C9A
:100C8000C3F830C035E0022014B0F0BD0A2A0FD2FC
:100C9000D3F834C0521F02EB4202520094402CEAB7
:100CA000040C0C6894404CEA040CC3F834C020E0F7
:100CB0000F2A0FD2D3F838C00A3A02EB4202520090
:100CC00094402CEA040C0C6894404CEA040CC3F8E1
:100CD00038C00EE0D3F83CC00F3A02EB420252009B
:100CE00094402CEA040C0C6894404CEA040CC3F8C1
:100CF0003CC00268936813F00C0F4FF0070374D1E7
:100D0000D1F800E0BEF10A0F10D39469AEF10A0EDB
:100D10000EEB4E0C03FA0CFE24EA0E04D1F808E0A8
:100D20000EFA0CFE44EA0E0494610FE0D2F814C0EF
:100D30000EEB4E0403FA04FE2CEA0E0CD1F808E088
:100D40000EFA04FE4CEA0E0CC2F814C002684C699C
:100D5000D2F80CC0CCF3C10C00E0E1E04FEA4C0C3F
:100D600004FA0CF4D1F810E0DFF810C2BEF1010F64
:100D700042D0BEF1020F4DD0BEF1030F58D0BEF1EC
:100D8000040F63D0146E91F800C004F0F844B4EB83
:100D90008C6F03D1146E24F0004414660268546E04
:100DA00091F800C004F0F844B4EB8C6F03D1546E9A
:100DB00024F0004454660268946E91F800C004F078
:100DC000F844B4EB8C6F03D1946E24F00044946625
:100DD0000268D46E91F800C004F0F844B4EB8C6F54
:100DE00003D1D46E24F00044D4660268946804F001
:100DF0000304012C3AD136E0D2F860E00EEA0C0E82
:100E000091F800C044EA8C644EEA040E4EF00044AF
:100E10001466EAE7D2F864E00EEA0C0E91F800C01E
:100E200044EA8C644EEA040E4EF000445466DCE75B
:100E3000D2F868E00EEA0C0E91F800C044EA8C6427
:100E40004EEA040E4EF000449466CEE7D2F86CE011
:100E50000EEA0C0E91F800C044EA8C644EEA040ECF
:100E60004EF00044C0E71468E4075ED1CC68012C62
:100E700006D052F8B03F0C78A740BB43136020E087
:100E800052F8B04F91F800C007FA0CF73C431460D9
:100E90000A6804680A2A0AD3A769093A02EB4202DF
:100EA00093409F438B6893401F43A76109E06769A4
:100EB000521C02EB420293409F438B6893401F43B6
:100EC000676109682E4A102904D0112905D012291A
:100ED00006D02AE093681B0204E09368DB0101E07E
:100EE00093685B02002B20DB03684FF0A044A34211
:100EF00002D1244F009700E000949F6807F0030799
:100F0000012F02D11F68FF070AD1009F8FB1BF6870
:100F100007F00307012F0CD1009F3F68FF0708D09F
:100F2000016C41F020010164012580F83C602846F5
:100F3000AAE6102908D011291AD01229F5D19168F2
:100F400041F480019160F0E7A342EED1916841F451
:100F5000000191600C490D4A0968B1FBF2F101EB07
:100F60008101490000E0491E00910029FBD1DCE726
:100F7000A342DAD1916841F08071E3E700F0FF838A
:100F800000030050000100504800002040420F00C4
:100F90000068006C70470000F0B54FF0000595B098
:100FA00004002F462E46009505D0206CC00648D47C
:100FB000206C18B133E0012015B0F0BD6664E66422
:100FC000A66484F83C60204600F0D8F82068806869
:100FD000C00024D42046FFF761FD0546206CC00602
:100FE0001DD4E5B9206C20F4885040F00200206444
:100FF0002068816821F0405181602068816841F05B
:1010000080518160574858490068B0FBF1F000EB0F
:101010008000400000E0401E00900028FBD12068C6
:101020008168C90002D5806880000AD5206C20F054
:10103000020040F010002064606C40F00100606429
:101040000125206CC0067DD4002D7BD120688168ED
:1010500049077ED4216C21F4807141F002012164A2
:1010600042494FF0A042904200D1414A009282682A
:1010700002F00302012A02D10068C00710D10098D3
:1010800040B1806800F00300012803D10098006897
:10109000C00705D18868626820F44030104388603A
:1010A000D4E902100843616B012902D04FF4805249
:1010B00000E00022617E42EA4132104394F8202091
:1010C0003843012A0AD1A9B1216C21F0020141F073
:1010D00020012164616C41F001016164A16A012970
:1010E00002D0E26A1143084321688A6812F00C0FAB
:1010F00008D013E0A18C1F4A02EB4141014341F4A7
:101100008030EBE7CA6844F202039A43CA60217E4A
:1011100094F83020890341EA420108432168CA68F3
:10112000154B1A400243CA60206901282068016BF0
:1011300021F00F0102D1E269521E1143016366647E
:10114000206C00E005E020F0020040F00100206487
:1011500006E0206C20F0020040F010002064012521
:10116000284629E74800002040420F0000030050B5
:10117000000100500000FEFF07C0F0FF10B586B070
:10118000044614216846FFF7A8FA2068B0F1A04F82
:101190001AD10E48416941F080514161416901F025
:1011A00080510591416941F480214161406969465E
:1011B00000F4802005900120009003200190002081
:1011C0000290034800F042F906B010BD0010024042
:1011D000000400482DE9F047044640690E464FF0F0
:1011E0000008082810D034488168C9060ED08068ED
:1011F00000F4404070B1206C40F02000206484F87E
:101200003C800120BDE8F087082504E02068C06824
:10121000C007EFE70C254FF0A040D0F80813C9062F
:1012200002D02168814200D12068C76800F030FAFE
:10123000814614E0701C12D02EB100F029FAA0EB08
:101240000900B0420BD920680068284207D1206C01
:1012500040F00400206484F83C800320D2E720683A
:1012600000682842E6D0206C40F4007020642068BA
:10127000C16811F4406F1AD1B90418D40168090784
:1012800015D581684907216C0AD421F48071216445
:10129000216CC9040BD4216C41F00101216406E0EA
:1012A00041F020012164616C41F001016164790425
:1012B00000D405600020A5E70003005070B5044687
:1012C00000688068400760D494F83C0001280CD086
:1012D000012084F83C002046FFF716FC01004FF087
:1012E000000204D084F83C2050E0022070BD206C45
:1012F00040F60163984340F4807020644FF0A040B2
:10130000D0F80833DB0602D02368834206D1236C71
:1013100023F4801323642368DB6807E0256C45F41D
:10132000801525641A4DAB4208D1C3689B0105D5D1
:10133000236C23F4005343F480532364236CDB04B5
:1013400004D5636C23F00603636400E0626484F8F0
:101350003C2023681C221A60D0F80823D2060ED045
:10136000D0F8082302F01F02052A08D0D0F808237D
:1013700002F01F02092A02D02268824206D12068A8
:10138000826842F00402826000E00221084670BDDB
:101390000001005010B540B190F821100022022940
:1013A00005D00421816380F82020012010BD016850
:1013B0000B6823F00E030B6001680B6823F0010338
:1013C0000B6090F84030C46B012101FA03F36360B5
:1013D00080F8211080F82020002010BD10B590F872
:1013E00021100024022903D004218163012418E084
:1013F00001680A6822F00E020A6001680A6822F099
:1014000001020A6090F84020C36B012101FA02F248
:101410005A6080F82110002180F82010416B01B142
:101420008847204610BD000070B5044600F030F932
:101430000546601C02D004480078044400F028F9F6
:10144000401BA042FAD370BD3C0000202DE9F04FB4
:10145000DFF80092002301260325A9F1040B85B0D3
:101460000F2709F1040AABF1040EEAE006FA03F4CF
:1014700022407CD091F804C00CF0030CBCF1010FA9
:1014800002D0BCF1020F26D1D0F808C0CDF800C0C0
:101490004FEA430C05FA0CF8CDF810C0DDF800C097
:1014A0002CEA080CCDF800C0D1F80C80DDF810C093
:1014B00008FA0CF8DDF800C048EA0C08C0F808800B
:1014C000D0F804C02CEA040C0C79C4F300149C403E
:1014D00044EA0C0444600C79E443A4070DD0D0F82E
:1014E0000CC04FEA430805FA08F42CEA040C8C6897
:1014F00004FA08F444EA0C04C4600C7904F0030410
:10150000022C19D1DC0800EB84040294246A4FEA0F
:10151000437C4FEADC6CCDF810C007FA0CFC24EADF
:101520000C04D1F81080DDF810C008FA0CF848EA75
:101530000408029CC4F8208004684FEA430805FAB6
:1015400008FC24EA0C0491F804C00CF0030C0CFA1B
:1015500008FC4CEA040CC0F800C04C6814F4403F8E
:101560006ED03D4CD4F818C04CF0010C00E067E0A0
:10157000C4F818C0A46923F0030C04F0010400941B
:10158000364C64440294A4684FEA837C4FEA1C788A
:1015900007FA08FC24EA0C04B0F1904F06D0DFF8FB
:1015A000C0C0604505D14FF0010C12E04FF0000CB7
:1015B0000FE0DFF8B0C0604502D14FF0020C08E048
:1015C000DFF8A4C0604502D14FF0030C01E04FF0FA
:1015D000050C0CFA08FC4CEA040C029CC4F808C088
:1015E000D9F80040CC46D1F8048094435FEAC8287B
:1015F00000D51443CCF80040DAF80040D446D1F8C6
:10160000048094435FEA882800D51443CCF8004056
:10161000DBF80040DC46D1F8048094435FEA883868
:1016200000D51443CCF80040DEF80040F446D1F871
:10163000048094435FEAC83800D51443CCF80040D6
:101640005B1C0A6832FA03F47FF410AF05B0BDE802
:10165000F08F00000804014000100240000001402B
:101660000004004800080048000C004800690840D9
:1016700000D001207047426921EA02030A4043EA90
:101680000241816170470AB1816170478162704790
:1016900001488068704700003C00002002488168D3
:1016A00002781144816070473C000020074810B563
:1016B000016841F010010160032000F06DF8002086
:1016C00000F006F800F024F8002010BD00200240D1
:1016D00070B50D4D04464FF47A712878B1FBF0F0E7
:1016E0000A490968B1FBF0F000F048FC48B9102C39
:1016F00007D200222146501E00F02EF800206C6018
:1017000070BD012070BD00003C000020480000209A
:10171000094808B5816941F001018161816901F0E1
:1017200001010091C16941F08051C161C06900F0BF
:101730008050009008BD000000100240002809DB26
:1017400000F01F02012191404009800000F1E020DB
:10175000C0F8001170470000F0B40E4B1B680C4637
:10176000C3F30223C3F10705042D00D90425191D75
:10177000072901D2002300E0DB1E012606FA05F14D
:10178000491E214099409E40761E16403143F0BCD0
:1017900001F0EFBC0CED00E0064900F0070208681C
:1017A0004FF6FF03184040EA0220034A1043086046
:1017B000704700000CED00E00000FA052DE9F0474D
:1017C0000F46050069D04A4E306800F00700B84265
:1017D00009D2306820F0070038433060306800F0EC
:1017E0000700B84259D12878424C800705D5606877
:1017F000A96820F0F000084360602878C0073DD059
:101800006968012001290DD0022923D05FF002036D
:1018100093FAA3F2B2FA82F242F02002520904D003
:10182000226803E04FF40033F2E7626A93FAA3F30D
:10183000B3FA83F303F01F03984002422DD060688F
:1018400020F0030008436060FFF722FF804641F26A
:1018500088390CE04FF00073DAE700BFFFF718FF9C
:10186000A0EB0801494502D90320BDE8F087606874
:10187000696800F00C00B0EB810FEFD1306800F028
:101880000700B8420BD9306820F0070038433060B9
:10189000306800F00700B84201D00120E5E7287861
:1018A000400705D56068E96820F4E060084360609F
:1018B0002878000706D56068296920F4605040EA5E
:1018C000C100606000F04EF86168F02292FAA2F266
:1018D00001F0F001B2FA82F2D140074A515CC840EF
:1018E0000649086006480068FFF7F2FE0020BCE7E2
:1018F0000020024000100240063A00084800002084
:101900004000002008480949006849684FF4E06237
:1019100092FAA2F201F4E061B2FA82F2D140044AF2
:10192000515CC84070470000480000200010024091
:10193000163A000808480949006849684FF460529F
:1019400092FAA2F201F46051B2FA82F2D140044A52
:10195000515CC84070470000480000200010024061
:10196000163A00080F4A10B551680F4801F00C03F1
:10197000042B12D0082B10D10C4BC1F38344D26A34
:101980001C5D02F00F021033C9039A5C06D50023D8
:101990001946FEF779FCA0FB040110BD0448A4FB26
:1019A000000110BD0010024000127A00E639000864
:1019B00000093D002DE9F84F050071D02878FC4E54
:1019C000C0074FF0010425D070686704C0F38100A0
:1019D000012807D07068C0F3810002281BD170680D
:1019E000C00318D597FAA7F0B0FA80F040F02000B5
:1019F000400901D0306800E0706A97FAA7F1B1FAA7
:101A000081F101F01F0104FA01F1084265D0686814
:101A10000028D2D061E06868B0F5803F0BD010B1EB
:101A2000B0F5A02F17D0306820F4803030603068D7
:101A300020F4802002E0306840F480303060F06AAA
:101A4000A96820F00F000843F062686820B3FFF730
:101A50001FFE80460AE0306840F480203060EAE7EC
:101A6000FFF716FEA0EB0800642871D897FAA7F0DC
:101A7000B0FA80F040F02000400901D0306800E06A
:101A8000706A97FAA7F1B1FA81F101F01F0104FA27
:101A900001F10842E4D020E0FFF7FAFD804607E0BC
:101AA000C2E000BFFFF7F4FDA0EB08006428DCD81B
:101AB00097FAA7F0B0FA80F040F02000400901D07A
:101AC000306800E0706A97FAA7F1B1FA81F101F08D
:101AD0001F0104FA01F10842E4D12878DFF8D4822A
:101AE00080074FF0000A4FF0020730D570684FF0C2
:101AF000F80B10F00C0F07D07068C0F381000228BB
:101B000027D17068C00324D497FAA7F0B0FA80F008
:101B100040F02000400901D0306800E0706A97FA78
:101B2000A7F1B1FA81F101F01F0104FA01F10842B5
:101B300002D02869012877D130689BFAABF220F0F7
:101B4000F8016869B2FA82F29040014331605AE0CC
:101B500064E1286988B394FAA4F0B0FA80F048F8F8
:101B60002040FFF795FD814606E000BFFFF790FD9E
:101B7000A0EB090002289AD897FAA7F0B0FA80F0F3
:101B800040F02000400901D0306800E0706A97FA08
:101B9000A7F1B1FA81F101F01F0104FA01F1084245
:101BA000E4D030689BFAABF26969B2FA82F220F0B5
:101BB000F80091400843306025E0FFE794FAA4F074
:101BC000B0FA80F048F820A0FFF762FD814605E0FA
:101BD000FFF75EFDA0EB09000228CCD897FAA7F02A
:101BE000B0FA80F040F02000400901D0306800E0F9
:101BF000706A97FAA7F1B1FA81F101F01F0104FAB6
:101C000001F10842E4D1287800076CD5A869A8B38F
:101C100094FAA4F0B0FA80F008EB8000C0F8804499
:101C2000FFF736FD814607E0A4E100BFFFF730FD76
:101C3000A0EB090002289ED897FAA7F0B0FA80F02E
:101C400040F06000B4EB501F01D130680BE097FA10
:101C5000A7F0B0FA80F040F06000B7EB501F01D160
:101C6000306A00E0706A97FAA7F1B1FA81F101F0E9
:101C70001F0104FA01F21042D8D034E0FFE794FAD1
:101C8000A4F1B1FA81F108EB8101C1F880A4FFF75A
:101C9000FFFC814606E000BFFFF7FAFCA0EB09005D
:101CA00002289AD897FAA7F0B0FA80F040F06000C6
:101CB000B4EB501F01D130680BE097FAA7F0B0FAEF
:101CC00080F040F06000B7EB501F01D1306A00E0B7
:101CD000706A97FAA7F1B1FA81F101F01F0104FAD5
:101CE00001F21042D8D12878400768D5F0694FF04A
:101CF0000009C00009D4F06940F08050F061F0693B
:101D00004FF0010900F0805000902B480168C90590
:101D100012D4016841F480710160FFF7B9FC834679
:101D200006E000BFFFF7B4FCA0EB0B00642875D8F9
:101D300021480068C005F5D5E86801280AD008B137
:101D4000052811D0306A20F001003062306A20F09E
:101D5000040002E0306A40F001003062E86868B3D5
:101D6000FFF796FC83460DE0306A40F004003062D5
:101D7000F0E700BFFFF78CFCA0EB0B0141F28830CD
:101D800081424BD897FAA7F0B0FA80F040F04000BB
:101D9000B4EB501F01D1306813E097FAA7F0B0FA06
:101DA00080F040F04000B7EB501F09D1306A08E0E6
:101DB0000010024000004242007000400CE040E091
:101DC000706A97FAA7F1B1FA81F101F01F0104FAE4
:101DD00001F21042CED02DE0FFF75AFC834607E017
:101DE000FFF756FCA0EB0B0141F28830814215D879
:101DF00097FAA7F0B0FA80F040F04000B4EB501F23
:101E000001D130680CE097FAA7F0B0FA80F040F00A
:101E10004000B7EB501F02D1306A01E083E0706AE6
:101E200097FAA7F1B1FA81F101F01F0104FA01F26A
:101E30001042D5D1B9F1000F03D0F06920F08050E5
:101E4000F061E86980B37168C1F38101022977D03C
:101E50004FF080714F000228504609D091FAA1F14D
:101E6000B1FA81F148F82100FFF712FC05465DE068
:101E7000894691FAA1F1B1FA81F1C24648F82100F0
:101E8000FFF706FC804605E0FFF702FCA0EB080028
:101E9000022848D897FAA7F0B0FA80F040F0200066
:101EA000400902D0306801E066E0706A97FAA7F155
:101EB000B1FA81F101F01F0104FA01F10842E3D106
:101EC000D5E908100843716821F474110843706063
:101ED00099FAA9F0B0FA80F04AF82040FFF7D8FB51
:101EE000054604E0FFF7D4FB401B02281BD897FAF5
:101EF000A7F0B0FA80F040F02000400901D030682F
:101F000000E0706A97FAA7F1B1FA81F101F01F01C0
:101F100004FA01F10842E5D02EE000BFFFF7B8FB5C
:101F2000401B022802D90320BDE8F88F97FAA7F0DA
:101F3000B0FA80F040F02000400902D0306801E0A3
:101F40000BE0706A97FAA7F1B1FA81F101F01F0175
:101F500004FA01F10842E1D10EE00128E4D07068F2
:101F60002A6A00F48031914204D1696A00F4701049
:101F7000884201D00120D7E70020D5E710B5401EE8
:101F8000B0F1807F01D3012010BD4FF0E0246061EB
:101F90000F21601701F0EDF80020A06107202061FB
:101FA000002010BD7047704770470000F0B590F8F2
:101FB0003C20012A2CD0012480F83C40022280F8E9
:101FC0003D2003685A689D68124EB34203D122F443
:101FD00070074A683A4322F070070A683A435A6029
:101FE0000268B24208D0B2F1804F05D00A4B9A4243
:101FF00002D00A4B9A4204D1896825F08003194324
:10200000916080F83D40002180F83C100846F0BD0A
:102010000220F0BD002C01400004004000400140BF
:1020200010B5040003D094F83D0010B107E0012082
:1020300010BD002084F83C00204600F023F8022068
:1020400084F83D00211D206800F020FD012084F867
:10205000480084F83E0084F83F0084F8400084F88B
:10206000410084F8420084F8430084F8440084F876
:10207000450084F8460084F8470084F83D000020BD
:1020800010BD000008B50068B0F1804F12D10A48B9
:10209000C16941F00101C161C069002200F0010085
:1020A000009011461C20FFF757FBBDE808401C209C
:1020B000FFF744BB08BD00000010024090F83D103F
:1020C000012901D001207047022180F83D100168EC
:1020D000CA6842F00102CA6000680D49884208D00F
:1020E000B0F1804F05D00B49884202D00A4988429E
:1020F00007D18168094A1140062906D0B1F5803F11
:1021000003D0016841F00101016000207047000028
:10211000002C014000040040004001400700010085
:1021200070B5044690F83C000025012817D0012620
:1021300084F83C60022084F83D00226890682F4BB0
:10214000184020F47F4090600868502838D00DDC9B
:1021500020284FD005DC90B3102811D14AE002208E
:1021600070BD302846D040280AD13BE060282FD0EF
:1021700070280DD0B0F5805F03D0B0F5005F12D0AD
:10218000012584F83D60002084F83C00284670BD9D
:10219000CB68D1E90121206800F0C2FC2068816889
:1021A00041F0770109E0CB68D1E90121206800F016
:1021B000B7FC2068816841F480418160E1E719E063
:1021C000CA684968206800F0BDFC5021206806E01C
:1021D000CA684968206800F0C6FC6021206800F0E9
:1021E000A9FCCEE7CA684968206800F0ABFC402132
:1021F0002068F4E7226801461046F0E788FFFEFFFA
:1022000070472DE9F04104460068C66805694FF043
:102210000007A90713D5B10711D5F91E01610120E7
:102220002077206880698007204602D0FFF7E8FF0A
:1022300004E000F089F8204600F087F82777680767
:1022400016D5700714D521686FF0040008610220CC
:1022500020772068806910F4407F204602D0FFF785
:10226000CFFF04E000F070F8204600F06EF827770A
:10227000280715D5300713D521686FF008000861CD
:10228000042020772068C0698007204602D0FFF72D
:10229000B7FF04E000F058F8204600F056F8277722
:1022A000E80616D5F00614D521686FF01000086115
:1022B000082020772068C06910F4407F204602D0B3
:1022C000FFF79EFF04E000F03FF8204600F03DF8E5
:1022D0002777E80708D0F00706D021686FF00100E3
:1022E0000861204600F032F8280608D5300606D5E9
:1022F00021686FF0800008612046FFF754FEE80572
:1023000008D5300606D521686FF480700861204634
:10231000FFF748FE680608D5700606D521686FF0FD
:1023200040000861204600F01BF8A8060AD5B00658
:1023300008D521686FF0200008612046BDE8F04113
:10234000FFF732BEBDE8F081704770470068B0F11A
:10235000804F02D101490120C87070470000002061
:1023600070477047704770472DE9F0410268044696
:10237000D0691168936840F60F0528424FF00005B8
:102380004FF0020605D187067ED58F067CD5A16E5B
:102390002AE1DFF884C203F0010701EA0C0C57EAD6
:1023A0000C0C71D05FEAC07C0CD05FEAC15C09D52F
:1023B0004FF0010CC2F820C0D4F8842042F0010292
:1023C000C4F88420820709D5DA0707D0226816628C
:1023D000D4F8842042F00402C4F8842042070AD5CD
:1023E000DA0708D0236804221A62D4F8842042F065
:1023F0000202C4F8842002070CD501F020023A43FF
:1024000008D0236808221A62D4F8842042F0080217
:10241000C4F8842002050BD54A0109D523684FF47E
:1024200000621A62D4F8842042F02002C4F88420AA
:10243000D4F88420002A36D0800605D5880603D536
:10244000A16E09B120468847D4F8840021688968C4
:10245000490602D410F0280F27D0204600F057FC80
:102460002068806840061BD52068083050E8001FAF
:1024700021F0400140E80012002AF5D1606F78B1E8
:1024800066494163606F00E015E0FEF7A7FF002892
:1024900009D0606F416B00E02046BDE8F04108477D
:1024A0002046FFF760FFBDE8F0812046FFF75BFFA5
:1024B000C4F88450F7E7D4F860C02027BCF1010FBE
:1024C0007DD15FEAC06C7ED55FEAC16C7BD5102000
:1024D000106220688068400642D5616F08684068D5
:1024E0000004000CDFD0B4F858208242DBD9A4F8F5
:1024F0005A00886920282BD0216851E8000F20F469
:10250000807041E80002002AF6D12068083050E8C7
:10251000001F21F0010140E80012002AF5D12068D7
:10252000083050E8001F21F0400140E80012002A66
:10253000F5D1C4F880702566206850E8001F21F0AE
:10254000100140E80012002AF6D1606FFEF722FF6A
:102550006666B4F85800B4F85A10401A81B22CE0FC
:10256000B4F85800B4F85A10401A81B2B4F85A00BE
:10257000002898D0002996D0226852E8000F20F455
:10258000907042E80003002BF6D12068083050E834
:10259000002F22F0010240E80023002BF5D1C4F8FF
:1025A00080702566A566206850E8002F22F0100292
:1025B00040E80023002BF6D16666204600E002E0EA
:1025C000FFF7CFFE6FE7C60209D55B0207D54FF4D0
:1025D000801010622046BDE8F041FFF7C3BE02063E
:1025E00006D50A0604D5E16E00297FF455AF5AE7F7
:1025F0004006E7D54806E5D52046026852E8001FA8
:1026000021F0400142E80013002BF6D1C767C566F0
:1026100000F006F947E7000020010004FB2C000849
:1026200010B5040002D0E06F10B107E0012010BD2A
:10263000002084F87800204600F026F82420E06787
:102640002068016821F001010160606A10B1204634
:1026500000F09BFA204600F03FFC0128E7D02068FC
:10266000416821F4904141602068816821F02A018D
:1026700081602068016841F0010101602046BDE8E9
:10268000104000F0E6BA000010B586B004461421F0
:102690006846FEF722F817492068884228D1164874
:1026A000C16941F40031C161C16901F40031059192
:1026B000416941F4003141614069694600F40030EC
:1026C000059048F204000090022001900020029042
:1026D00003200390072004904FF09040FEF7B6FED1
:1026E000002211462620FFF737F82620FFF726F8AC
:1026F00006B010BD004400400010024030B4D0F8D5
:102700008030202B02D0022030BC704791B18AB1BA
:102710000023036603685B681B0208D5046854E85D
:10272000003F43F0806344E80035002DF6D130BC13
:1027300000F072BC0120E7E730B400680C49884221
:1027400013D10C4802794379511C01F03F019942A1
:1027500003D0094C437AA35401710649064801226B
:10276000093130BC9838FFF7C9BF30BC7047000052
:102770000044004000000020800100202DE9F843C3
:102780000446C06F984616460D46202802D0022007
:10279000BDE8F88395B18EB10020C4F884002120F3
:1027A000E067FEF775FFA4F850608146A4F8526018
:1027B000A0682027B0F5805F02D003E00120E7E7A2
:1027C000206910B12E46002510E000260EE0802181
:1027D000204600F07DFCC0B9D6B116F8010B216887
:1027E0000885B4F85200401EA4F85200B4F8520014
:1027F0004B464FF00002CDF800800028E7D14FF0A3
:102800004001204600F064FC38B1E7670320BFE7D1
:1028100035F8020BC0F30800E1E7E7670020B7E7EF
:102820007047FEE710B586B018216846FDF755FFE2
:1028300013484FF0A041012401604FF40031416082
:10284000002181600161417680F82010C0E90A41D1
:10285000C461C16080F8301004214161FEF79CFB27
:1028600050B90B20CDE900040520029069460448C8
:10287000FEF7E6F9002801D0FEF77EF906B010BD9C
:102880004C0000202DE9F04786B014216846FDF782
:1028900024FF354C606940F400306061606900F4E9
:1028A00000300590606940F480206061606900F448
:1028B00080200590606940F4800060616069DFF805
:1028C000AC8000F480000590002203214046FEF712
:1028D000DAFE40F2F3364FF0904900223146484686
:1028E000FEF7D1FEDFF888A000227A215046FEF7DD
:1028F000CAFE606940F4800060616069002200F4F3
:102900008000059003214046FEF7BDFE0327012508
:1029100000240097CDE90154694640460394FEF730
:1029200095FD0096CDE90154694648460394FEF7AB
:102930008DFDA8028DE8310069464846FEF786FD08
:102940007A200090CDE90154694650460394FEF781
:102950007DFD0095CDE9017469465046FEF776FD90
:1029600006B0BDE8F08700000010024000140048E7
:102970000004004810B588B0002415480094019464
:1029800002940394049405944FF0804106940160EE
:102990004BF67F31C0E901146321C0E9031484615F
:1029A000FFF73EFB78B94FF4805000906946084825
:1029B000FFF7B6FB38B9049404A905480694FFF75D
:1029C000F5FA002801D0FEF7D7F808B010BD0000D6
:1029D0009C0000200C4810B50A4901604FF4E13119
:1029E0004160002181600C22C160C0E90412816154
:1029F000C1614162FFF714FE002801D0FEF7BCF868
:102A000010BD000000440040E8000020FEE7FEE7A3
:102A100070477047FEF742BE30B58FB02821684638
:102A2000FDF75BFE14210AA8FDF757FE02250120E1
:102A3000049000951020059000244FF42010CDE95B
:102A4000084007956846FEF7B5FF60B90F20CDE94D
:102A50000A056802CDE90C4001210AA80E94FEF790
:102A6000ADFE002801D0FEF787F80FB030BD0000A2
:102A70000248016841F470010160704788ED00E090
:102A80000148FFF7BEBB00009C000020F0B50268C3
:102A90001E4B1F4F4FF0804C984203D0604501D031
:102AA000B84203D122F070044A682243194C1A4DEF
:102AB0001A4E984209D0604507D0B84205D0A042CE
:102AC00003D0A84201D0B04203D122F44077CA68B3
:102AD0003A434F6922F080023A4302608A68C26238
:102AE0000A688262984205D0A04203D0A84201D071
:102AF000B04201D109690163012141610169C9073E
:102B000003D0016921F001010161F0BD002C0140F9
:102B100000040040004001400044014000480140E2
:102B200010B5846842EA032224F47F440A43224316
:102B3000826010BD826822F070020A4342F00701F1
:102B40008160704710B5036A046A24F001040462CE
:102B5000846924F0F00444EA021423F00A020A43D0
:102B60008461026210BD10B5036A046A24F0100487
:102B70000462846923F0A00324F4704444EA02321E
:102B800043EA01118261016210BD90F82410090727
:102B900006D501684A68436B22F400421A434A6032
:102BA00090F82410C90706D001684A68836A22F4A5
:102BB00000321A434A6090F82410890706D501684C
:102BC0004A68C36A22F480321A434A6090F824109B
:102BD000490706D501684A68036B22F480221A432C
:102BE0004A6090F82410C90606D501688A68836B8C
:102BF00022F480521A438A6090F82410890606D580
:102C000001688A68C36B22F400521A438A6090F804
:102C10002410490611D501684A68036C22F4801219
:102C20001A434A60016CB1F5801F06D101684A68F9
:102C3000436C22F4C0021A434A6090F8241009063B
:102C400006D501684A68806C22F4002202434A607B
:102C500070472DE9F84300260446C0F88460FEF76B
:102C600017FD8046206800684FF0200500076FF0D0
:102C70007E4712D54346002229042046009700F0E3
:102C800027FA50B1216851E8000F20F0800041E898
:102C90000002002AF6D1E56721E0206800684007BD
:102CA00022D5434600224FF480012046009700F0D1
:102CB0000FFAC8B1216851E8000F20F4907041E884
:102CC0000002002AF6D12068083050E8001F21F0E9
:102CD000010140E80012002AF5D1C4F8805084F8C0
:102CE00078600320BDE8F883E567C4F8805044F8B5
:102CF000606F666026760020F4E710B5406A002118
:102D0000A0F85A10A0F85210FFF72DFB10BD016873
:102D100051E8002F22F4907241E80023002BF6D1F5
:102D20000168083151E8002F22F0010241E8002338
:102D3000002BF5D1016E012908D1026852E8001F6D
:102D400021F0100142E80013002BF6D12021C0F839
:102D50008010002101668166704710B5B0F85C20D4
:102D6000D0F880300168222B04D0886940F0080038
:102D7000886110BD898C436D11401980416D891C9B
:102D80004165B0F85A10491EA0F85A10B0F85A1010
:102D90000029EED1026852E8001F21F4907142E848
:102DA0000013002BF6D10168083151E8002F22F002
:102DB000010241E80023002BF5D12021C0F880104A
:102DC00000218166416602685268120208D50368D4
:102DD00053E8002F22F0806243E80024002CF6D153
:102DE000026E012A02D0FFF7A7FC10BD016602683F
:102DF00052E8001F21F0100142E80013002BF6D129
:102E00000168CA69D243D20601D410220A62B0F81E
:102E10005810FFF7A6FA10BD10B5B0F85C20D0F836
:102E200080300168222B04D0886940F00800886156
:102E300010BD898C1140426D1170416D491C416576
:102E4000B0F85A10491EA0F85A10B0F85A100029CC
:102E5000EED1026852E8001F21F4907142E800139D
:102E6000002BF6D10168083151E8002F22F0010251
:102E700041E80023002BF5D12021C0F8801000216B
:102E80008166416602685268120208D5036853E8F9
:102E9000002F22F0806243E80024002CF6D1026E5D
:102EA000012A02D0FFF748FC10BD0166026852E813
:102EB000001F21F0100142E80013002BF6D1016839
:102EC000CA69D243D20601D410220A62B0F858105F
:102ED000FFF747FA10BD000070B50446806821690D
:102EE000E2690843616900251143226808431168BB
:102EF000434B19400143116020684168E26821F4A6
:102F0000405111434160A169206A084321688A68E1
:102F100022F4306202438A603A492068884210D124
:102F20003948006B10F0030011D0012805D00228A9
:102F300005D003280DD102210CE004210AE008216C
:102F400008E03249884202D03149884201D100214B
:102F500000E01021E3694FF400402E4A4FF6EF766F
:102F6000834226D1092941D2DFE801F005080B4050
:102F70000D4040401000FEF7C5FC06E0FEF7DAFC0D
:102F800003E0104602E0FEF7EDFC80B3410060680C
:102F900001EB5001B1FBF0F0A0F11001B14225D8D6
:102FA0004FF6F0710140C0F3420001432068C16058
:102FB00021E009291AD2DFE801F005080B190D19E3
:102FC00019191000FEF79EFC06E0FEF7B3FC03E0C3
:102FD000104602E0FEF7C6FC48B1616800EB510004
:102FE000B0FBF1F0A0F11001B14201D9012502E0DE
:102FF000216880B2C8600020A066E066284670BDE7
:10300000F369FFEF00380140001002400044004027
:103010000048004000127A0030B54165A0F8582001
:10302000A0F85A200022826681684FF48055FF2361
:10303000A94204D1016969BB40F2FF1130E07F244D
:1030400031B3B1F1805F28D0A0F85C20C0F88420B3
:103050002221C0F880100168083151E8002F42F0A9
:10306000010241E80023002BF5D18168A94201D17A
:103070000169D9B1144981660169C9B1016851E892
:10308000002F42F4907241E80023002BF6D118E0A3
:10309000016941B9A0F85C30D8E7016919B13F2155
:1030A000A0F85C10D2E7A0F85C40CFE70749816642
:1030B000026852E8001F41F0200142E80013002B93
:1030C000F6D1002030BD0000192E00085B2D00084D
:1030D0002DE9F047994617460D4604464FF0000883
:1030E000089E33E0701C31D0FEF7D2FAA0EB090045
:1030F000B04218D8BEB120680168490726D5802D96
:1031000024D0402D22D0C169C94309070DD4082518
:1031100005622046FFF7FBFDC4F8845084F87880F0
:103120000120BDE8F0870320FBE7C069C04300052C
:103130000CD421684FF4006008622046FFF7E7FDD9
:103140002020C4F8840084F87880ECE72068C06907
:1031500035EA000004D00020B842C3D00020E0E7E8
:103160000120F9E70148FFF7FFB80000E800002060
:10317000FEE70907090E002804DB00F1E02080F8D3
:103180000014704700F00F0000F1E02080F8141DDB
:10319000704730380A2801D201207047002070475C
:1031A00010B590B0032800D30020114C04F1240383
:1031B00003EBC002207091886181D288A281CDE9A1
:1031C000001253F830300BA2382102A8FDF7D4F8D2
:1031D000002807DD382805D282B2322302A90D4823
:1031E000FFF7CCFA0020A0706061A06110B010BDA4
:1031F000000000205B5052455345545D202573204C
:10320000205741524E3D257520414C41524D3D25A0
:10321000750D0A00E800002070B54FF480614FF092
:103220009040FEF723FA0D4C30B1E07901250328D8
:103230000FD3207A20B10CE0E0790025401C09E092
:1032400020780321401CB0FBF1F201FB1200FFF7D4
:10325000A7FF0020E071257270BD00000000002073
:10326000002100F0ADB808B500EB400080000090F0
:1032700001E000BF0846411E0091FAD208BD10B51A
:10328000044606E00121641C00F09AF83220FFF7A2
:10329000EAFF20780028F5D110BD10B540B141F00B
:1032A000C000FFF7DDFFBDE810403220FFF7DBBFB5
:1032B00041F08000F5E7000030B53F4C00EB4001E5
:1032C0004900A2898BB0B1FBF2F1C9B2062900D93D
:1032D000062149228DF8002064228DF801207823F0
:1032E0008DF802303A238DF803304FF47A73B0FB37
:1032F000F3F530358DF80450B0FBF3F503FB150002
:10330000B0FBF2F330338DF80530B0FBF2F302FB83
:1033100013000A22B0FBF2F330338DF80630B0FB15
:10332000F2F302FB130030308DF8070020208DF8F7
:1033300008005B208DF8090000206A46884201D20F
:10334000FF2300E020231518401CC0B2AB720628F2
:10335000F4D35D208DF80F0000258DF81050202249
:10336000102105A8FDF78FF98DF824501248217817
:10337000243050F8310001680591416806910089B8
:10338000ADF81C000D48A17850F821000168CDF877
:103390001E108088ADF8220000210846FFF77DFF4F
:1033A0006846FFF76CFF00210120FFF776FF05A8B4
:1033B000FFF765FF0BB030BD0000002000390008AA
:1033C00070B5044609B1012200E00022274D012119
:1033D0002846FEF758F9002202212846FEF753F945
:1033E0004FF0904504F0010201212846FEF74BF909
:1033F000C4F3400202212846FEF745F9C4F38002D7
:1034000002211B48FEF73FF9C4F3C00210212846F1
:10341000FEF739F9C4F3001220212846FEF733F9EC
:10342000C4F3401240212846FEF72DF9C4F3801260
:1034300080212846FEF727F9E2094FF480712846DB
:10344000FEF721F90122540221462846FEF71BF916
:103450000120FFF708FF002221462846FEF713F956
:10346000BDE870400120FFF7FEBE000000140048D8
:10347000000400488CB018216846FDF72EF9FEF7CD
:1034800015F9FFF7C9FAFFF7FDF9FFF7CBF9FFF7D9
:1034900071FAFFF79FFA0B200126CDE900060520FF
:1034A000029069465E48FDF7CBFB002861D1002100
:1034B0005B48FDF775FB00285BD110215948FDF7EB
:1034C000EAF8594C4FF00008584FC4F810804546B0
:1034D00084F80180012210213846FEF7D4F800223A
:1034E00020213846FEF7CFF8002240213846FEF76B
:1034F000CAF8142106A8FDF7F0F806A9B00281E881
:1035000061004FF090452846FDF7A0FF0120FFF72E
:1035100047FE002271022846FEF7B5F8444D00220E
:1035200001212846FEF7AFF8002202212846FEF7C7
:10353000AAF81E20FDF778FF3820FFF791FE322011
:10354000FFF791FE0C20FFF78BFE3220FFF78BFE7A
:103550000120FFF785FE0220FDF766FF0620FFF73A
:103560007FFE3220FFF77FFE2D485030FEF7A6FD8C
:1035700008B1FDF701FB2C492A480122093188389E
:10358000FFF7BCF82748C823D9222A498838FFF713
:10359000F5F80020FFF790FE00F0E2F8E078002850
:1035A000FAD084F80380FFF737FE002540F6FF7657
:1035B0002F461B48FDF782FE02211948FDF70AFE3F
:1035C00048B91748FDF7E4FC80B2B04200D2064685
:1035D000A84200D905467F1C402FEAD3B54201D34B
:1035E000A81B00E0002085B20E496078236931F8FD
:1035F000102021F810509A1A5119401C00F00700B1
:1036000021616070C1F3CF06304600F0D1F830463A
:10361000FFF752FE3146284600F00EF8BCE70000E6
:103620004C00002070010020000000200004004831
:10363000001400480C39000830B5114B97B0A3F1C5
:1036400024021478558953F8343094898DE8230086
:10365000CDE903430B4891780BA250F82130482163
:1036600005A8FCF789FE002807DD482805D282B2AC
:10367000322305A91148FFF781F817B030BD0000CB
:1036800024000020F43800085B25735D2070703D35
:10369000253475206176673D253475205741524E9B
:1036A0003D257520414C41524D3D25752070726578
:1036B0007365743D25730D0A00000000E8000020CA
:1036C00070B506460D221BA1FCF792FF1D4C40F67B
:1036D0003C7530B10E221CA13046FCF789FF90B139
:1036E0000DE006F10D00FCF776FFA0F16401A942A0
:1036F00005D8A18980B2884201D2608110E03223CE
:103700000522154910E006F10E00FCF764FFA0F158
:103710006401A942F3D8618980B28842EFD9A081BF
:103720000D4932230422491FBDE870400B48FFF7C2
:1037300025B8000053455420544852205741524E5A
:10374000200000000000002053455420544852201F
:10375000414C41524D200000ED380008E8000020A7
:1037600070B50025104E114C18E00F494039095C26
:10377000401C00F03F0060710D2904D00A2902D0DE
:10378000A0793F2807D3A079355410B10648FFF738
:1037900097FFA57102E03154401CA0716079217936
:1037A0008842E2D170BD0000C0010020000000206E
:1037B00070B53D4C00252146A278498902B3012A03
:1037C00025D0022A39D0A570A078384E90B30128B0
:1037D0004FD0022813D1002210213046FDF753FFAD
:1037E000012240213046FDF74EFFE069401CE061B8
:1037F000022804D320213046FDF73DFFE56170BD6E
:103800006561A5618842DFD30120A070DCE7A56176
:10381000884201D2A5700EE0A18988420BD360696D
:10382000401C60610528CFD30220A0706561E5616E
:103830002562C9E70CE06561C6E76561884205D28B
:10384000A069401CA0611E28BED3A570A561BBE77E
:10385000012210213046FDF716FF002220213046BC
:10386000FDF711FF002240213046FDF70CFFE56116
:1038700018E0002210213046FDF705FF012220212B
:103880003046FDF700FF206A401C2062012801D865
:10389000012200E0002240213046FDF7F4FE206ABC
:1038A0000A28ACD3256270BD000000200004004847
:1038B00010B500290AD00878002807D005487844B8
:1038C000FDF7A4F8002801D0002010BD024878447C
:1038D00010BD0000D6010000CE0100004FF0407086
:1038E000E1EE100A704700004F4B0D0A004552529E
:1038F0000D0A0000603A0008483A0008583A0008EB
:10390000503A0008383A0008403A00080D0A3D3D98
:103910003D2043616D707573204E6F697365204D56
:103920006F6E69746F722028463330334B382070C5
:103930006F727429203D3D3D0D0A507265736574A8
:10394000733A20303D4C6962726172792020313DBA
:103950005374756479526F6F6D2020323D4C6162F3
:103960000D0A436F6D6D616E64733A2053455420A8
:10397000544852205741524E203C6E3E20202F206A
:10398000205345542054485220414C41524D203C34
:103990006E3E0D0A55415254323A2054583D504122
:1039A00032202052583D50413320203131353230C1
:1039B0003020384E310D0A2D2D2D2D2D2D2D2D2D54
:1039C0002D2D2D2D2D2D2D2D2D2D2D2D2D2D2D2D27
:1039D0002D2D2D2D2D2D2D2D2D2D2D2D2D2D2D2D17
:1039E0002D2D2D0D0A0002030405060708090A0BF8
:1039F0000C0D0E0F10100102030405060708090A3A
:103A00000B0C0D0E0F100000000000000000010262
:103A10000304060708090000000001020304000077
:103A20004C61622020202020202000004C6962721E
:103A300061727920202000005741524E2020000062
:103A4000414C41524D2000005741524E2000000091
:103A50005155494554200000414C41524D00000051
:103A60005155494554000000537475647920526FD4
:103A70006F6D0000A43B0008000000204C00000017
:103A8000C4010008F03B00084C00002014080000AE
:103A9000E00100081001000043000000F8FFFFFFF4
:103AA0000040404040404040404041414141414051
:103AB0004040404040404040404040404040404006
:103AC0004005020202020202020202020202020295
:103AD000022020202020202020202002020202029A
:103AE00002029090909090901010101010101010F2
:103AF00010101010101010101010101002020202FE
:103B00000202888888888888080808080808080841
:103B1000080808080808080808080808020202023D
:103B20004000000000000000000000000000000055
:103B30000000000000000000000000000000000085
:103B40000000000000000000000000000000000075
:103B50000000000000000000000000000000000065
:103B60000000000000000000000000000000000055
:103B70000000000000000000000000000000000045
:103B80000000000000000000000000000000000035
:103B90000000000000000000000000000000000025
:103BA00000000000010000000000000001006400AF
:103BB000C80000000000000000000000000000003D
:103BC00000000000000000002C3A0008C800F401CA
:103BD000683A00086400C800203A0008C201840363
:103BE00001000000100000000000000000127A0038
:040000050800018965
:00000001FF
